:100000000C9439000C9400000C9400000C94000037
:100010000C9400000C9400000C9400000C94000060
:100020000C9400000C9400000C9400000C948E00C2
:100030000C9400000C9400000C9400000C94000040
:100040000C9400000C9400000C9400000C94000030
:100050000C9400003F065B4F666D7D077F6F0100CB
:100060002D4E414E00494E460000010060025E00E8
:100070000000F894EE27ECBBF1E0FBBFEBBFE5BF5F
:10008000F8E1F1BDE1BD8DE0A2E0BB27ED938A95DB
:10009000E9F780E098E0A0E6ED930197E9F7EAE65A
:1000A000F0E085919591009761F0A591B59105904B
:1000B0001590BF01F00105900D920197E1F7FB014A
:1000C000F0CFEFE5EDBFE8E0EEBFC0E6D2E00C9484
:1000D000A9000E949C010BBAC198C09A0E94BD0160
:1000E000C098C19AF801EC5AFF4F04900BBA0EC0A9
:1000F0000E949C0102BAC29AC3980E94BD01C29894
:10010000C39AF801EC5AFF4F049002BAA6E9B0E096
:100110000E94DA010E94230326960895EA93FA9337
:10012000EFB7EA93F20131962F01F30131963F01C7
:10013000E5EDF0E3E415F50514F4442455240E949C
:10014000C10114F466247724E991EFBFF991E99194
:100150001895E0E0EBBBEFEFEABBE0E0E8BBEFEFC8
:10016000E7BBE0E0E5BBEFE3E4BBE0E0E2BBEFEFE1
:10017000E1BBE3E0E3BFE0E0E2BFECBFEFBDEEBD1B
:10018000EDBDECBDE7BDE6BDEBBDEABDE9BDE8BD3B
:10019000E2BDE5BDE4BDE3BDE5BFE4BFE1E0E9BF2D
:1001A000E0E0EAB9E0E8E8B9E0E0E0BFE6B9EDB9DF
:1001B000E6BF7894E4E9F1E1E415F5054CF0A89880
:1001C000A998AA9A0E94C601A2E1B0E00E94CC01BF
:1001D000A4E9B1E1A415B5052CF4E8E8F3E1E415D0
:1001E000F5050CF409C0A898A99AAA980E94C6011E
:1001F000A4E1B0E00E94CC01A8E8B3E1A415B505E4
:100200002CF4E4EDF0E3E415F5050CF409C0A89A2C
:10021000A998AA980E94C601A2E3B0E00E94CC016E
:10022000E4EDF0E3E415F5051CF4AA98A898A99864
:10023000E8E5FBE1E615F7054CF0AB98AC98AD9A14
:100240000E94D001ACE1B0E00E94D601E8E5FBE1FC
:10025000E615F7052CF4ECE4FDE1E615F7050CF4E2
:1002600009C0AB98AC9AAD980E94D001AEE1B0E065
:100270000E94D601ECE4FDE1E615F7051CF40E94AE
:10028000C1010CF409C0AB9AAC98AD980E94D001A2
:10029000A2E3B0E00E94D6010E94C1011CF4AB9819
:1002A000AC98AD9887CFFFCF0E9419037B816A81FC
:1002B000F981E88177FB770F67FD7160972F9E5773
:1002C00081F078F0983190F4AA27BB27882708940A
:1002D0008795B795A7959A95D1F7EA23FB236823CD
:1002E00005C0E8947727EE27FF2766276F77769576
:1002F00008F4606877F9A991B99189919991EA1701
:10030000FB076807790797FB08950E9419030E946D
:100310000F030E9454010E94140319F40E940A035F
:1003200009C0E6F70E940A03A0E0B0E080E89FE37E
:100330000E94730224960895BA93AA930E941E0302
:10034000AC81BD81EAE0F0E00E94E9020E94D102A6
:100350000E944002DF01CB010E9485010E94090238
:100360008F01AC81BD81EAE0F0E00E94EE029F01C6
:10037000F901EC5AFF4F04900895A6E9B0E00C94FF
:10038000DA01E4EDF0E3E615F7050895D201EAEFAE
:10039000F0E00E94E9020895AE1BBF0B0C946900C7
:1003A000D301EAEFF0E00E94E9020895AE1BBF0B13
:1003B0000C947800109639F088EE93E00197F1F7ED
:1003C000A8951197C9F7089550E8572711F45F933E
:1003D000CAC05F3F31F0660F000C57956795752FC7
:1003E00008955F9300200AF0CAC0C3C050E8192ED8
:1003F0001522880F991F9527550F879550E8072ECE
:100400000522660F771F7527550F67950895689425
:1004100001C0E8945F93F2DF703818F07F3F08F472
:10042000A2C056E1571BAAF4519558300EF459302A
:1004300030F0EFEFFFEF6FEF7FE777F91AC0772724
:100440005523B9F0EE0FFF1F661F771F5A95D1F79E
:1004500010C07727583028F0EF2FF62F672F58500D
:10046000F9CF552331F076956795F795E7955A952D
:10047000D1F700200AF48DD05F910895689401C0EF
:10048000E894309760407040B1F0002426F0772364
:1004900012F400947ED0172E7EE1112032F07A956E
:1004A000EE0FFF1F661F111CF9CFEF2FF62F612DE6
:1004B0005F938ADF5F9108954F93AF01FD01DA01E9
:1004C000AB01BC01CA01402D012C142E4F9108959F
:1004D000EA0FFB1F681F0895E095F0956095EF5FA8
:1004E000FF4F6F4F08955F9381DF903849F150E8D7
:1004F0001526703821F1572F591B2BF112F4DCDF30
:10050000FACF583118F0AA27BB278827583028F08F
:10051000AB2FB82F88275850F9CF552329F086954F
:10052000B795A7955A95D9F7502D512572F0D0DF80
:1005300038F46795F795E795739513F420C0BCDF01
:1005400043DF5F910895D8F7FBCFEA1BFB0B680BE5
:1005500051F010F40094C0DF662392F3EE0FFF1FFA
:10056000661F7A95CBF7EE27FF27662777275F91DF
:100570000895EFEFFFEF6FE77FEF5F910895EFEFE3
:10058000FFEF6FE77FE75F910895F195E195F04008
:100590000895F09560957095E195FF4F6F4F7F4FEF
:1005A00008956F2F660F660B762F0895002411248F
:1005B00090E1AA0FBB1F001C111C0E1A1F0A18F491
:1005C0000E0E1F1E01C0A1609A9599F7FD01D00182
:1005D000089512D0EBDF0EF4D8DF0895E894B7FF4A
:1005E00004C0A095B09511966894F7FDCEDFDEDFCC
:1005F000FD010EF4CADF0895E894F7FF02C0C5DFDD
:100600006894B7FF06C0A095B095119600F80394C2
:1006100000FA0895E881F9816A817B810895A881B3
:10062000B9818A819B810895E883F9836A837B83FA
:1006300008959A938A93BA93AA9308953A932A9322
:100640001A930A9308953B812A811981088108959C
:00000001FF
