:0C0000000C9477000C9400000C9400009D
:10000C000C9400000C9400000C9400000C94000064
:10001C000C9400000C9400000C9400000C94000054
:10002C000C9400000C9400000C9400000C94000044
:10003C000C9400000C9400000C9400000C94A9008B
:10004C000C9400000C940B010C9400000C94000018
:10005C000C9400000C9400000C9400000C94000014
:10006C000C9400000C9400000C9400000C94000004
:10007C000C9400000C9400000C9400000C940000F4
:10008C001027E80364000A000100001000011000B2
:10009C00010000005265633A0073656E643A0073A8
:1000AC00656E64696E67000001002D4E414E00497B
:1000BC004E46000080C0010002009E0005000005B5
:1000CC00A00006000505A50006000B05A50006000E
:1000DC001105A50001002705B40002002B05C00086
:1000EC000000F894EE27ECBBF1E0F5BFE5BFE09320
:1000FC006C00F8E1F1BDE1BD8DE0A2E0BB27ED9312
:10010C008A95E9F780E090E1A0E0B1E0ED930197EA
:10011C00E9F7E2ECF0E085919591009761F0A591FB
:10012C00B59105901590BF01F00105900D920197C6
:10013C00E1F7FB01F0CFEFEFEDBFE0E1EEBFC0E088
:10014C00D5E00C943D010A921A92FA926A937A9332
:10015C008A939A93AA93BA93EA93FA93EFB7EA9392
:10016C0060970E946C031BB10CB1E12FEC7189F408
:10017C00E52D5394F0E0E95EFA4F0083E8E0E515D5
:10018C0009F455247394E8E0E71519F4772468947E
:10019C0020F80E949E0226D03E2FE0E0EA93A1E0D8
:1001AC000E949102A0E0B5E00E94C302E5E0EA9350
:1001BC00A1E00E949102E32FF0E0FA93EA930E94EF
:1001CC0012030E9471036496E991EFBFF991E991D2
:1001DC00B991A9919991899179916991F990199015
:1001EC00099018951A937720F1F3E42D4394F0E0DD
:1001FC00E95EFA4F1081E8E0E41509F44424F89420
:10020C007A947894E12F19910895EA93FA93EFB7C1
:10021C00EA93882061F08A94E92D9394F0E0E15EF2
:10022C00FA4FE081ECB9E8E0E91509F49924E99179
:10023C00EFBFF991E9911895AA93E8E0E815E9F375
:10024C00F894882011F45D990DC0E62D6394F0E0CC
:10025C00E15EFA4FA881A083E8E0E61509F4662474
:10026C00839402C0E881ECB978940C9410036497E1
:10027C00E0E0E883E983EA83EB8344E050E020E0AC
:10028C0030E0EBBBEABBE8BBE7BBE5BBE4BBE2BBE6
:10029C00EFE0E1BBE0E0E3B9E2B9E0936200E093A8
:1002AC006100E0936500E0936400E0BFE3BFE2BF50
:1002BC00E1BFEFBDEEBDEDBDECBDE7BDE6BDEBBDF9
:1002CC00EABDE9BDE8BDE0937900E0937800E5BDB7
:1002DC00E4BDE3BDE0938B00E0938A00E0938900DA
:1002EC00E0938800E0938100E0938000E093870026
:1002FC00E0938600E0938500E0938400E093830014
:10030C00E0938200E0936A00EABFE9BFE7BFE093A5
:10031C007D00EBB9E8EDEAB9E6E0E0939500E0E0AA
:10032C00E0939000E3E3E9B9E0E0E0939A00E0E8C1
:10033C00E8B9E0E0E0BDE6B9EDB9E0937400A0E106
:10034C000E94E50278940E941A03A5E0B5E00E9491
:10035C00C302AA81BB81109721F4A881B98110979F
:10036C0009F089C0909A91980E941F03849B04C045
:10037C0007E010E00E942503859B04C008E010E014
:10038C000E942503869B04C009E010E00E9425030F
:10039C009098919A0E941F03849B04C004E010E083
:1003AC000E942503859B04C005E010E00E942503F4
:1003BC00869B04C006E010E00E942503909891985B
:1003CC00929A93980E943403849B04C001E010E03D
:1003DC000E942503859B04C002E010E00E942503C7
:1003EC00869B04C003E010E00E942503909891982E
:1003FC009298939A0E943403869B04C00AE010E002
:10040C000E942503859B04C000E010E00E94250398
:10041C00849B19C00E941A030E949E02ABEAB0E0B2
:10042C000E94D202A4E60E943803A22F05DF0E948C
:10043C009E020E941A03ABE0B5E00E94C30220E0CA
:10044C0030E044E050E0AA81BB811197A1F40E94F6
:10045C001A03A1E1B5E00E94C3024A93A0E00E94F6
:10046C0091021A930A930E941203E0E0EA83EB8351
:10047C00A0E50E9438036DCFFFCFBA93AA93A99140
:10048C00B991E991F99130962AF4E095F09531966D
:10049C006DE26D93E89480E197E20DD088EE93E0E5
:1004AC000AD084E6992707D08AE005D06E2F10D0A9
:1004BC0066276C9308956627E817F90720F0639573
:1004CC00E81BF90BC9F7662311F416F0089568942C
:1004DC00605D6D930895AA93EBB3EF70AE2FE88136
:1004EC00E07FEA2BEBBB85E08A95F1F7DA9A8DE099
:1004FC008A95F1F7DA988DE08A95F1F78BC0AA937B
:10050C00A881E9DFE881E295E883A881E4DF85E84A
:10051C008A95F1F77FC0AA93E881F0E0E55DFA4F88
:10052C00E081A981AE0FEBDFB980A88022960895F7
:10053C00A2E0E5DFA3E00E943803ACE0E0DFA1E03D
:10054C00DEDFA3E00E943803E0E0AE2EBE2E08955D
:10055C00AA93A881AA3011F0BD1448F0E0E0EA9308
:10056C00A394AA2DD8DFA881AA3009F453C0B39460
:10057C00D89AA881C4DFD8984DC0BA93AA931A937D
:10058C00A981BA81ED91A983BA831E2FE03019F0AD
:10059C00A12FDEDFF5CF10C0BA93AA931A93E9818D
:1005AC00FA813196E983FA833197E4911E2FE0307A
:1005BC0019F0A12FCDDFF3CF188123960895AA93BC
:1005CC00EAB3E06FEABBD29AD09AD19ADA98D8986B
:1005DC00D998D880E881E058E0932D05E881E05463
:1005EC00E0932E05A4E10E9438030E943B030E9475
:1005FC003B030E943B03A0E26EDF88EC90E0019786
:10060C00F1F7A8E27CDFA4E07ADFA5E878DFA6E0CA
:10061C0076DF8EDF21960895DE0116960E94430246
:10062C00DE0114960C94C302E0E0EA93A0E00C9473
:10063C00910292989398A1E0B0E00C944303F901D5
:10064C00AAE0B0E00E945903E00FF11F9F014F5F39
:10065C005F4FE1E0F0E0EA83FB830895A1E0B0E0B6
:10066C000C944303B0E00C944303A0E30E9471028A
:10067C0088EC90E00197F1F70895109639F080ED31
:10068C0097E00197F1F7A8951197C9F70895F1959F
:10069C00E195F0400895FA9FF02DEB9FF00DEA9F45
:1006AC00E02DF10D089504D0F6DF0EF4F0DF08957F
:1006BC00E894F7FF02C0EBDF6894B7FF06C0A09583
:1006CC00B095119600F8039400FA08953A932A9382
:1006DC001A930A9308953B812A8119810881089500
:00000001FF
