:060000000C9455000C9465
:1000060000000C9400000C9400000C9400000C946A
:1000160000000C9400000C9400000C9400000C945A
:1000260000000C9400000C9400000C9400000C944A
:1000360000000C9400000C9400000C9400000C943A
:1000460000000C9400000C9400000C940000445333
:100056005441434B454E440048535441434B454E4F
:10006600440054656D707261747572653D25660055
:1000760080C000002D4E414E00000000010000002F
:100086002D4E414E00494E460000090060005400C6
:10009600090068015E000400600176000400640146
:1000A60082000000F894EE27ECBBF1E0FBBFEBBF4B
:1000B600E5BFF8E1F1BDE1BDE0E9F0E0859195919C
:1000C600009761F0A591B59105901590BF01F001DB
:1000D60005900D920197E1F7FB01F0CFEFE5EDBF3B
:1000E600E4E0EEBFC0E6D1E00C948600AA93E88176
:1000F600E7B98BE18A95F1F7369A349BFECF349AAD
:10010600E4B1F5B101C1E0E0EBBBEABBE8BBEFEF60
:10011600E7BBE0E0E5BBE4BBE2BBE1BBE3BFE2BFBC
:10012600ECBFEFBDEEBDEDBDECBDE7BDE6BDEBBD85
:10013600EABDE9BDE8BDE2BDE5BDE4BDE3BDE5BFA1
:10014600E4BFE9BFEAB9E0E8E8B9E0E0E0BFE7B953
:10015600E3EAE6B9E0B7EF71E0BFE0E0EDB9E6BF8C
:10016600A0E1A6D0A39772D0A0E0C0DFE9A3FAA3CE
:100176000E94EB05DF01CB01E0E0F0EC6FE774E4F1
:100186000E9449080E94F0050E94F505E0E0F0E0B3
:1001960068EC72E40E94FB070E942D09E0E0EA93F6
:1001A600A1E047D0FE013896FA93EA93E8E6F0E03C
:1001B600FA93EA930E94FA050E94320984E00E94AB
:1001C600AE042896DE01189662D00E94FF053ED046
:1001D600E0E0E8BB0E94FF05C498C59AC69AC79A94
:1001E6000E94FF05C49AC598C69AC79AA396BACF25
:1001F600FFCFAA93E5B3EF70AE2FE881E07FEA2B3D
:10020600E5BB85E08A95F1F7AA9A8DE08A95F1F724
:10021600AA988DE08A95F1F777C0AA93A881E9DFBD
:10022600E881E295E883A881E4DF85E88A95F1F71D
:100236006BC0AA93E881F0E0E05AFE4FE081A98105
:10024600AE0FEBDF5980488022960895A2E00E9407
:100256000306ACE0E2DFA1E00E940306E0E04E2EDA
:100266005E2E0895AA93A881AA3011F0571448F07B
:10027600E0E0EA934394A42DDCDFA881AA3009F4D8
:1002860043C05394A89AA881C8DFA8983DC0BA93E2
:10029600AA931A93A981BA81ED91A983BA831E2FD5
:1002A600E03019F0A12FDEDFF5CF188123960895EF
:1002B600AA93E4B3E06FE4BBA29AA09AA19AAA9883
:1002C600A898A9987880E881E058E0936201E881CF
:1002D600E054E0936301A4E1B0E00E94FB060E94B3
:1002E60009060E9409060E940906A0E282DF88EC40
:1002F60090E00197F1F7A8E290DFA4E08EDFA5E891
:100306008CDFA6E08ADFA2DF21960895BA93AA932E
:100316001A930A93AA81BB8112960E9419093097F3
:1003260029F1AA81BB8114960E9419098F01309781
:1003360061F00230E0E01E07C0F0F80131978F014E
:10034600AA81BB811496ED93FC93AA81BB81129678
:100356000E9411063197AC81A083AA81BB810E94BD
:100366001909FF2312F00E94110606C0AA81BB815B
:10037600EFEFFFEFED93FC93198108812596089521
:100386000E941706E0E8EA83EFE3EB830E944F0939
:10039600EE85FF85EF3FAFEFFA0749F4E885F9856B
:1003A600FA93EA93AAE7B0E00E94E204B4C0EF3FF2
:1003B600AFE7FA0749F4E885F985FA93EA93ABE7DC
:1003C600B0E00E94E204A7C0AB85A73010F0E6E0DB
:1003D600EB871B85E12F1150E03019F00E941E06B5
:1003E600F9CFEC85FD856E857F850E94490921F44C
:1003F60030E00E941E062EC03B850E94260609F0AC
:1004060010F40C9411020E941E060E94260628F083
:100416000E942E060E943306F8CF0DC00E942606C3
:1004260040F40E942E060E943F060E944606315066
:10043600F5CF0E941E06EC85FD856E857F850E94A0
:100446004B060E9446060E94260620F00E942E06B3
:100456000E94330610E0EB85E11788F10E94F5054E
:100466000E9452060E944B06DF01CB010E9439050D
:100476000E94F0050E94FA050E942E060E94490875
:100486000E9438070E2F0E9459060E946006FF2719
:10049600662777270E9471070E94F5050E94FB07D1
:1004A6000E942E060E9465060E944606E12F1F5FE7
:1004B600E03089F60E945906EEE2EC93CCCF0E941A
:1004C6006A063197AA85A08330302CF43195A88529
:1004D600B985EDE203C0A885B985EBE2EC930E94ED
:1004E6006A060E946A063197BF01A32FEAE00E94BE
:1004F600D308E05DDB01EC930E946A063197BF01E9
:10050600A32FEAE00E94FD08E05DDB01EC93A885DD
:10051600B985E0E0EC930E94560960960895BA9377
:10052600AA93EF9761970E944D0910E0FE01E85AE1
:10053600FF4F0190F081E02DE887F987FE01EA5A26
:10054600FF4F0190F081E02DEE83FF83AE81BF81E6
:10055600E0E0F0E0ED93FC93DE01A45ABF4F0E9469
:1005660011063197E4912E2FE03011F40C94A50476
:10057600E12FE03039F4253211F411E002C00E9477
:100586007006DFC1E130C1F4253219F40E9470060D
:10059600D7C112E0E0E0ED8B00E02D3211F401E06E
:1005A600D0C12B3219F4EBE2ED8BCBC1203219F41A
:1005B600E0E2ED8BC6C102C0E23039F450E013E050
:1005C600203311F40068BDC102C0E33091F420333A
:1005D60010F02A3308F007C0AAE05A9F502DE22FE8
:1005E600E0535E0FAEC140E02E3211F414E0A9C113
:1005F6000FC0E43099F4203310F02A3308F008C015
:100606000062AAE04A9F402DE22FE0534E0F99C1A7
:100616002C3619F4026015E094C104C0E53011F0DF
:100626000C94A404E22FE33659F40E9477060E9444
:100636007E060E947706A481AA930E94850680C141
:10064600E53411F0E53609F404C0E63611F00C94F1
:100656007203FE017696EE87FF870E948B060E9444
:100666001D090E9492060E949706AD85AA2322F0D4
:10067600AD89AB3249F017C00E9499060E94050762
:100686000E949206EDE2ED8B07FF05C0ED89EA9325
:100696000E94850608C0EE85FF853196EE87FF87A6
:1006A6003197AD89A08305FF46E0263651F40E94B6
:1006B60099060E9432094A93AB89BC890E9450056B
:1006C60009C00E9499060E9432094A932A93AC896E
:1006D600BD8956DEFE0176960E949E061EC0E33751
:1006E60039F40E9497060E94A6060E949E060EC036
:1006F600E037C1F40E9497060E94A606EE87FF87A0
:10070600AE85BF850E94FB041E2F08600F77403020
:1007160011F0411708F001C0142F40E0E0E0EC8B27
:1007260030E06EC0E43611F0E93611F4046002C020
:10073600E537A1F4EAE0EC8B01FF08C0E0E0FAEC53
:100746006AE97BE30E94AB061AE023C0E0E1F7E228
:1007560060E070E00E94AB0615E01BC0E83511F4BE
:10076600086004C0E83711F00C94A304E0E1EC8BB8
:1007760001FF08C0E0E0F0E060E070E10E94AB0637
:1007860018E007C0E0E0F0E160E070E00E94AB0630
:1007960014E0403011F00F7701C041E001FF08C0BE
:1007A6000E9497060E948B0614960E941D090FC090
:1007B60002FF07C00E9497060E94A6060E94C00874
:1007C60006C00E9497060E94A60666277727EA8734
:1007D600FB876C877D8702FF12C0AD85AA2342F492
:1007E6000E9499060E94B2080E949206EDE2ED8BE5
:1007F600ED89E03019F01F5F4F5F01C00B7F342F8A
:1008060000FD14C0151710F4351708F00FC007FFC8
:1008160008C002FF04C00B7F2D89115001C020E3E0
:1008260001C020E20E9470065150ECCF141790F4DC
:10083600006102FF06C00E94B00609F05150115037
:100846004150E0E3EA930E948506503009F051508A
:100856004150ECCF312FEC89E030B9F43030A1F0C3
:1008660003FF06C0EE85FF852591EE87FF8705C04D
:10087600AE85BF852D91AE87BF870E94700650302A
:1008860009F051503150EACF51C00E94C2060E9471
:10089600D8082E2F2A3030F003FF02C0295C01C091
:1008A600295A01C0205D04FD21C0213360F4A889C6
:1008B600B9898A899B89A130E0E0BE07E0E08E070E
:1008C600E0E09E0709F40BC0431740F4531710F0FD
:1008D60000FF01C010C020E207FF08C020E300614E
:1008E60002FF04C00E94B00609F051500E94700633
:1008F600503009F0515031500E94C2060E94090939
:100906000E949206EC89A889B9898A899B89FF2762
:10091600662777270E94D8080E94AB06E889F989DE
:100926006A897B890E94490909F0AFCF00FF08C098
:10093600503031F05150E0E2EA930E948506F8CF3C
:1009460010E00ACEAE81BF810E9419090E945409A7
:10095600EF966F960895FF92F82E26970E944F09FC
:100966000E94CB06309719F4EFEFFFEF23C0DE01AC
:1009760016960E94AE088D010E94CB06EE83FF8379
:10098600E0E0E887E987DE011A960E94AE080E9439
:100996001909FA93EA931A930A93E9E8F1E0FA93AC
:1009A600EA93DE011A96BBDD9F01AE81BF81E0E0CE
:1009B600EC93F9010E9456092A96FF900895BA937E
:1009C600AA93E991F991A991B991CD0105900D925A
:1009D6000020E1F7FC010895BA93AA93A991B99171
:1009E600EE27FF276D91662311F03196FBCF089510
:1009F600BA93AA93AA27BB27E991F99105900020FB
:100A060011F01196FBCFFD0108950E9437097B81F5
:100A16006A81F981E88177FB770F67FD7160972F0F
:100A26009E5781F078F0983190F4AA27BB27882743
:100A360008948795B795A7959A95D1F7EA23FB234E
:100A4600682305C0E8947727EE27FF2766276F7788
:100A5600769508F4606877F9A991B9918991999189
:100A6600EA17FB076807790797FB08950E9437097D
:100A76000E9428090E9408050E942D0919F40E9467
:100A8600230909C0E6F70E942309A0E0B0E080E848
:100A96009FE30E94A40724960895C6D0E0E0EA8367
:100AA600EFE3EB831A930A93EB85FC85EF3FAFEFF9
:100AB600FA0731F474D1A6E8B0E00E94E20484C0DB
:100AC600EF3FAFE7FA0731F46AD1A7E8B0E00E943A
:100AD600E2047AC0AC85AA2352F4E985FA856B85CF
:100AE6007C850E94050760D164D1EDE2EC93A88570
:100AF600A73010F0E6E0E8871885E12F1150E030C6
:100B060021F05ED1CCD061D1F8CF64D10E94AB0781
:100B16004BD110E0E0E0F0E060E87FE356D15AD137
:100B26000E948E0868F04CD1A7D04FD11F5F1732B4
:100B360030F035D1ABE8B0E00E94E20445C0EFCF1B
:100B4600103021F436D1E0E3EC931DC0E12F1150B3
:100B5600E030C9F035D1A3D09BD0DF01CB010E9494
:100B6600390533D137D10E9449080E9438070E2F24
:100B760020D1A3D0F0E024D12BD00E94FB0733D1A3
:100B8600A1D012D1E3CFE885E030D1F012D1EEE268
:100B9600EC93E885E150E887EF5F91F024D16CD0C3
:100BA60003D1E985FA856B857C850E9438070E2F6F
:100BB60000D183D0F0E017D10BD084D0F5D0E9CFA7
:100BC600AE81BF81E0E0EC93198108812D960895EE
:100BD6000E94C0080E9471070895EC83FD836E830E
:100BE6007F830895AC81BD818E819F810895EC81BC
:100BF600FD816E817F810895A4E6B0E00C94FB062A
:100C06000E941001A3E0B0E00C94FB06A0E30E9452
:100C1600FC0088EC90E00197F1F70895ED91FD91C5
:100C26003196FE93EE930895BA93AA932497E0E043
:100C3600E883E9830895D6DFE0E0F0E060E271E45E
:100C46000E94FB07CACFD3DFAC85BD858E859F8505
:100C56000E948E080895AC85BD858E859F85089572
:100C6600EDECFCEC6CEC7DE30E94FB07EC87FD876A
:100C76006E877F873F5F0895E0E0F0E060E271E411
:100C86000E94FB070895EC87FD876E877F8708958E
:100C9600A0E0B0E080E09FE30E94AB070895EDEC92
:100CA600FCEC6CEC7DE30E94FB070895A885B985F2
:100CB6001196A887B98711970895E02FE05DEC9308
:100CC600E02F08950E943C090E94A4070895E88534
:100CD600F9853196E887F98708952A93AF81B88513
:100CE600E985FA8509950895FE01E65AFF4F0190B8
:100CF600F081E02D08953497DE01A65ABF4FED939B
:100D0600FC930895AF81B885E985FA85099508951C
:100D1600DE01A65ABF4F0D90BC91A02D0895EA871B
:100D2600FB876C877D870895DFDFE5CFEA85FB8546
:100D36006C857D850895EE87FF87AE85BF850E9409
:100D4600EF041E2F0895E4DF14960E9419090895F2
:100D5600E88BF98B6A8B7B8B08950B7FED89EA9381
:100D6600DE01A95ABF4F0D90BC91A02DFE01E75A96
:100D7600FF4F0190F081E02D099550300895E889E4
:100D8600F9896A897B89AA85BB858C859D850895A5
:100D9600DE011C960E94AE080E9419090895EE8194
:100DA600FF81FA93EA930895E987FA876B877C8730
:100DB6000895AE81BF811196AE83BF8311970895C2
:100DC600AA81BB818C819D810895EA83FB836C8314
:100DD6007D830895EA81FB816C817D81A985BA8531
:100DE6008B859C850895A985BA858B859C850895F4
:100DF600109639F080ED97E00197F1F7A8951197D5
:100E0600C9F7089530976040704009F0705808950A
:100E1600552342F4503811F4E0FF04C03196691F9F
:100E2600791F6BF050E8572711F45F93CFC05F3FEF
:100E360031F0660F000C57956795752F08955F93EF
:100E460000200AF0CFC0C8C050E8192E1522880F1E
:100E5600991F9527550F879550E8072E0522660F8F
:100E6600771F7527550F67950895689401C0E89414
:100E76005F93F2DF703818F07F3F08F4A7C056E1A1
:100E8600571BAAF4519558300EF4593030F0EFEF55
:100E9600FFEF6FEF7FE777F91AC077275523B9F091
:100EA600EE0FFF1F661F771F5A95D1F710C07727E1
:100EB600583028F0EF2FF62F672F5850F9CF5523CB
:100EC60031F076956795F795E7955A95D1F7002015
:100ED6000AF445D15F910895689401C0E89430976B
:100EE60060407040B1F0002426F0772312F400949D
:100EF60036D1172E7EE1112032F07A95EE0FFF1FC4
:100F0600661F111CF9CFEF2FF62F612D5F938ADF35
:100F16005F9108954F93AF01FD01DA01AB01BC016A
:100F2600CA01402D012C142E4F910895EA0FFB1F84
:100F3600681F0895E095F0956095EF5FFF4F6F4F3E
:100F460008955F9381DF903871F150E8152604C04B
:100F56005F937ADF903839F1703821F1572F591B9A
:100F66002BF112F4D7DFFACF583118F0AA27BB2796
:100F76008827583028F0AB2FB82F88275850F9CF3C
:100F8600552329F08695B795A7955A95D9F7502DEB
:100F9600512572F0CBDF38F46795F795E795739591
:100FA60013F420C0B7DF3EDF5F910895D8F7FBCF7B
:100FB600EA1BFB0B680B51F010F40094BBDF6623B1
:100FC60092F3EE0FFF1F661F7A95CBF7EE27FF27EA
:100FD600662777275F910895EFEFFFEF6FE77FEFC3
:100FE6005F910895EFEFFFEF6FE77FE75F91089559
:100FF6005F932ADF703851F3903841F30124089447
:10100600791F23F41CF300203AF3ECCF0F921F93C1
:101016002F933F934F93112722279927689FA0016B
:101026008F9F302D410D591F6B9F300D411D591F4C
:101036008E9F27D0BF9F25D06A9F23D0BE9F1DD0ED
:10104600AF9F1BD0AE9F110D291F391F491F591F76
:10105600E32FF42F652F522F4F913F912F911F9120
:101066000F9066232AF0550FEE1FFF1F661F02C062
:1010760073954BF2CDDE5F910895100D211D391F3A
:1010860002C0200D311D491F591F08955F93DCDEF4
:10109600703821F411200AF49FCFA4CF903809F4B8
:1010A60095CF01240894970B1BF4D4F30020F3CFBB
:1010B600792F1F932F933F934F93112411272227A4
:1010C60033274427552790E2AE17BF078607410707
:1010D60030F0AE1BBF0B860B410B089401C0889401
:1010E600551F221F331F111CAA1FBB1F881F441F19
:1010F6009A9551F7F901612D4F913F912F911F91CB
:10110600662332F0550FEE1FFF1F661F7A9543F2D6
:101116007FDE5F91089599239AF0772342F097171F
:1011260048F029F4AE17BF07860720F031F09894EF
:101136008894089598940894089518948894089526
:101146007723C2F7971798F3A9F7EA17FB076807FB
:1011560088F399F3ECCF0024AF0DB01D0895F095F8
:1011660060957095E195FF4F6F4F7F4F0895FE2F65
:10117600FF0FFF0B6F2F7F2F08956F2F660F660BE4
:10118600762F0895002498E0AA0F001C0E1A10F47A
:101196000E0E01C0A1609A95B9F7EA2FA02D089509
:1011A60039D0F0DF0EF4E19508953F934F935F93A6
:1011B600002411244427552730E2AA0FBB1F881F9D
:1011C600991F001C111C441F551F0E1A1F0A460B9F
:1011D600570B28F40E0E1F1E461F571F01C0A16095
:1011E6003A9559F7FD01BC01D001CA015F914F91B3
:1011F6003F910895E894A7FF02C0A1956894E7FD82
:10120600E195C0DFEA2F0EF4E1950895CEDFFD01EA
:10121600BC010895E894E7FF02C0E1956894A7FF32
:1012260004C0A19500F8039400FA0895ED91FC918D
:1012360011970895ED91FD916D917C911397089505
:10124600E881F9816A817B810895A881B9818A81C3
:101256009B810895E883F9836A837B8308957A9353
:101266006A93FA93EA9308959A938A93BA93AA9300
:101276000895182E862F612D192E972F712D1B2E4E
:10128600BF2FF12D1A2EAE2FE12D08953097604015
:10129600704008955A934A933A932A931A930A935D
:1012A60008955D814C813B812A81198108810895C9
:00000001FF
