:080000000C9497000C94000021
:100008000C9400000C9400000C9400000C94000068
:100018000C9400000C9400000C9400000C94000058
:100028000C9400000C9400000C9400000C94000048
:100038000C9400000C9400000C9400000C94000038
:100048000C9400000C9400000C9400000C94000028
:100058000C9400000C9400000C9400000C94000018
:100068000C9400000C9400000C9400000C94000008
:100078000C9400000C9400000C9400000C940000F8
:100088000C940000090000000300010001000900B1
:100098001027E80364000A000100001000011000A6
:1000A80001006C6F6164696E672E2E2E2E2E00FF84
:1000B8000044657369676E65642042792000522E9A
:1000C800426F72756D616E646900656E7465722049
:1000D80070617373776F7264002A00656E7465725D
:1000E80020236F6B0077656C636F6D650077726FA7
:1000F8006E672070617373776F726421007761692E
:100108007420333020736563000001002D4E414E8A
:1001180000494E46000080C001000005120102009F
:1001280004051E010000F894EE27ECBBF1E0F5BFD2
:10013800E5BFE0936C00F8E1F1BDE1BD8DE0A2E020
:10014800BB27ED938A95E9F780E090E1A0E0B1E064
:10015800ED930197E9F7E0E2F1E085919591009739
:1001680061F0A591B59105901590BF01F00105903A
:100178000D920197E1F7FB01F0CFEFEFEDBFE0E162
:10018800EEBFC0E0D5E00C94C9006397E0E0EA87D1
:10019800EB870E943B03EC87ED8720E030E0E0E04E
:1001A800E883E983EBBBEABBE8BBE7BBE5BBE4BBA1
:1001B800E2BBEFE0E1BBE0E0E3B9E2B9E093620063
:1001C800E0936100E0936500E0936400E0BFE3BF63
:1001D800E2BFE1BFEFBDEEBDEDBDECBDE7BDE6BDE5
:1001E800EBBDEABDE9BDE8BDE0937900E093780096
:1001F800E5BDE4BDE3BDE0938B00E0938A00E093A6
:100208008900E0938800E0938100E0938000E09308
:100218008700E0938600E0938500E0938400E093F4
:100228008300E0938200E0936A00EABFE9BFE7BF7A
:10023800E0937D00EAB9E0939A00E0E8E8B9E0E0ED
:10024800E0BDE6B9EDB9E0937400A0E10E940E03A9
:100258000E944103AAEAB0E00E94FB02E0E0EE87B8
:10026800EF87AE85BF85509784F4EE850E944603DC
:10027800A7EBB0E00E94FB02A2E30E944A03EE85CE
:10028800FF853196EE87FF87ECCF0E94C702A9EB66
:10029800B0E00E94FB02E0E00E944603A6ECB0E05A
:1002A8000E94FB02A8EEB3E00E946E030E94C70200
:1002B8000E944D03E1E0F0E0E217F30711F40C941B
:1002C8000602A885B985119711F40C94F901909A42
:1002D800919892980E945103849B04C001E010E019
:1002E8000E945403859B04C002E010E00E9454035E
:1002F800869B04C003E010E00E9454039098919AF2
:1003080092980E945103849B04C004E010E00E946C
:100318005403859B04C005E010E00E945403869BAB
:1003280004C006E010E00E94540390989198929AB5
:100338000E945103849B04C007E010E00E9454030C
:10034800859B04C008E010E00E945403869B04C00B
:1003580009E010E00E945403909891989298939A1B
:10036800A1E00E944A03849B04C00AE010E00E94B6
:100378005403859B04C000E010E00E945403869B50
:1003880002C021E030E0E1E0F0E0E417F50721F5F4
:10039800EA85FB85DE011296EA0FFB1F0083AEE1BA
:1003A8000E944A031A930A93DE0154960E946C0233
:1003B800EA850E944603DE0152960E94EC02A4E6FA
:1003C8000E944A03EA850E944603A1EEB0E00E941B
:1003D800FB02A4E60E944A03AA85BB85179724F06E
:1003E800E1E0F0E0E887F9870CC040E050E00E94C7
:1003F8006303A3EEB0E00E94FB02869B02C021E0EB
:1004080030E064C0E0E0E88BE98BA889B9891697E9
:1004180044F5E889F989DE011296AE0FBF1F1C90DA
:10042800ACE8B0E0EE0FFF1FEA0FFB1F0E94780355
:10043800A12DB0E0EA17FB0751F40E946303ADEE6B
:10044800B0E00E94FB02A4E60E944A0304C0E1E077
:10045800F0E0E883F983E889F9893196E88BF98B2C
:10046800D4CFA881B981119789F5EC85FD8531969E
:10047800EC87FD870E94C702A5EFB0E00E94FB024F
:10048800A0E2B3E00E946E030E94C702AC85BD855E
:10049800139779F4A5E0B1E00E94FB02A0E3B5E769
:1004A8000E946E030E9441030E944D03E0E0EC8726
:1004B800ED8720E030E00E943B03E883E983E0E039
:1004C800EA87EB870E9463030E944D03F3CEFFCFB8
:1004D800BA93AA93A991B991E991F99130962AF41E
:1004E800E095F09531966DE26D93E89480E197E29E
:1004F8000DD088EE93E00AD084E6992707D08AE0E9
:1005080005D06E2F10D066276C9308956627E817DC
:10051800F90720F06395E81BF90BC9F7662311F476
:1005280016F008956894605D6D930895AA93EBB3EF
:10053800EF70AE2FE881E07FEA2BEBBB85E08A9570
:10054800F1F7DA9A8DE08A95F1F7DA988DE08A95D5
:10055800F1F78BC0AA93A881E9DFE881E295E883E7
:10056800A881E4DF85E88A95F1F77FC0AA93E8813E
:10057800F0E0EC5FFA4FE081A981AE0FEBDF598024
:10058800488022960895A2E0E5DFA3E00E944A038E
:10059800ACE0E0DFA1E0DEDFA3E00E944A03E0E098
:1005A8004E2E5E2E0895AA93A881AA3011F05714F2
:1005B80048F0E0E0EA934394A42DD8DFA881AA305C
:1005C80009F453C05394D89AA881C4DFD8984DC071
:1005D800BA93AA931A93A981BA81ED91A983BA8390
:1005E8001E2FE03019F0A12FDEDFF5CF10C0BA932F
:1005F800AA931A93E981FA813196E983FA833197AC
:10060800E4911E2FE03019F0A12FCDDFF3CF188130
:1006180023960895AA93EAB3E06FEABBD29AD09AD8
:10062800D19ADA98D898D9987880E881E058E093F8
:100638000605E881E054E0930705A4E10E944A0317
:100648000E9466030E9466030E946603A0E26EDFB2
:1006580088EC90E00197F1F7A8E27CDFA4E07ADF6C
:10066800A5E878DFA6E076DF8EDF21960895E0E042
:10067800E887E98740E050E00895E0E0EA93A0E0E9
:100688000C94BA02EA93A1E00C94BA02B0E00C947C
:100698006E03A2EDB0E00C94FB029398A1E0F6CFB4
:1006A800EA85FB85DE011296EA0FFB1F0083EA85C7
:1006B800FB853196EA87FB8741E050E008950E9468
:1006C800C702DBCFA0E30E949A0288EC90E0019772
:1006D800F1F70895109639F080ED97E00197F1F75A
:1006E800A8951197C9F708950590F491E02D0895FC
:00000001FF
